{
  "contractName": "DcentraFunding",
  "abi": [
    {
      "anonymous": false,
      "inputs": [
        {
          "indexed": false,
          "internalType": "uint256",
          "name": "id",
          "type": "uint256"
        },
        {
          "indexed": false,
          "internalType": "string",
          "name": "title",
          "type": "string"
        },
        {
          "indexed": false,
          "internalType": "string",
          "name": "description",
          "type": "string"
        },
        {
          "indexed": false,
          "internalType": "uint256",
          "name": "goal",
          "type": "uint256"
        },
        {
          "indexed": false,
          "internalType": "uint256",
          "name": "received",
          "type": "uint256"
        },
        {
          "indexed": false,
          "internalType": "uint256",
          "name": "date",
          "type": "uint256"
        },
        {
          "indexed": false,
          "internalType": "string",
          "name": "imageHash",
          "type": "string"
        },
        {
          "indexed": false,
          "internalType": "address payable",
          "name": "creator",
          "type": "address"
        }
      ],
      "name": "ProjectCreated",
      "type": "event"
    },
    {
      "anonymous": false,
      "inputs": [
        {
          "indexed": false,
          "internalType": "uint256",
          "name": "id",
          "type": "uint256"
        },
        {
          "indexed": false,
          "internalType": "string",
          "name": "title",
          "type": "string"
        },
        {
          "indexed": false,
          "internalType": "string",
          "name": "description",
          "type": "string"
        },
        {
          "indexed": false,
          "internalType": "uint256",
          "name": "goal",
          "type": "uint256"
        },
        {
          "indexed": false,
          "internalType": "uint256",
          "name": "received",
          "type": "uint256"
        },
        {
          "indexed": false,
          "internalType": "uint256",
          "name": "date",
          "type": "uint256"
        },
        {
          "indexed": false,
          "internalType": "string",
          "name": "imageHash",
          "type": "string"
        },
        {
          "indexed": false,
          "internalType": "address payable",
          "name": "creator",
          "type": "address"
        }
      ],
      "name": "ProjectFunded",
      "type": "event"
    },
    {
      "constant": true,
      "inputs": [],
      "name": "name",
      "outputs": [
        {
          "internalType": "string",
          "name": "",
          "type": "string"
        }
      ],
      "payable": false,
      "stateMutability": "view",
      "type": "function"
    },
    {
      "constant": true,
      "inputs": [],
      "name": "projectCount",
      "outputs": [
        {
          "internalType": "uint256",
          "name": "",
          "type": "uint256"
        }
      ],
      "payable": false,
      "stateMutability": "view",
      "type": "function"
    },
    {
      "constant": true,
      "inputs": [
        {
          "internalType": "uint256",
          "name": "",
          "type": "uint256"
        }
      ],
      "name": "projects",
      "outputs": [
        {
          "internalType": "uint256",
          "name": "id",
          "type": "uint256"
        },
        {
          "internalType": "string",
          "name": "title",
          "type": "string"
        },
        {
          "internalType": "string",
          "name": "description",
          "type": "string"
        },
        {
          "internalType": "uint256",
          "name": "goal",
          "type": "uint256"
        },
        {
          "internalType": "uint256",
          "name": "received",
          "type": "uint256"
        },
        {
          "internalType": "uint256",
          "name": "date",
          "type": "uint256"
        },
        {
          "internalType": "string",
          "name": "imageHash",
          "type": "string"
        },
        {
          "internalType": "address payable",
          "name": "creator",
          "type": "address"
        }
      ],
      "payable": false,
      "stateMutability": "view",
      "type": "function"
    },
    {
      "constant": false,
      "inputs": [
        {
          "internalType": "string",
          "name": "_title",
          "type": "string"
        },
        {
          "internalType": "string",
          "name": "_desc",
          "type": "string"
        },
        {
          "internalType": "uint256",
          "name": "_goal",
          "type": "uint256"
        },
        {
          "internalType": "string",
          "name": "_imageHash",
          "type": "string"
        }
      ],
      "name": "createProject",
      "outputs": [],
      "payable": false,
      "stateMutability": "nonpayable",
      "type": "function"
    },
    {
      "constant": false,
      "inputs": [
        {
          "internalType": "uint256",
          "name": "_id",
          "type": "uint256"
        }
      ],
      "name": "updateReceivedFunds",
      "outputs": [],
      "payable": true,
      "stateMutability": "payable",
      "type": "function"
    }
  ],
  "bytecode": "0x60c0604052600e60808190526d4463656e74726146756e64696e6760901b60a090815261002f9160009190610047565b50600060015534801561004157600080fd5b506100e2565b828054600181600116156101000203166002900490600052602060002090601f016020900481019282601f1061008857805160ff19168380011785556100b5565b828001600101855582156100b5579182015b828111156100b557825182559160200191906001019061009a565b506100c19291506100c5565b5090565b6100df91905b808211156100c157600081556001016100cb565b90565b611003806100f16000396000f3fe60806040526004361061004a5760003560e01c806306fdde031461004f578063107046bd146100d957806336fbad261461027c57806346575714146102a3578063a86a6f911461046e575b600080fd5b34801561005b57600080fd5b5061006461048b565b6040805160208082528351818301528351919283929083019185019080838360005b8381101561009e578181015183820152602001610086565b50505050905090810190601f1680156100cb5780820380516001836020036101000a031916815260200191505b509250505060405180910390f35b3480156100e557600080fd5b50610103600480360360208110156100fc57600080fd5b5035610519565b60405180898152602001806020018060200188815260200187815260200186815260200180602001856001600160a01b03166001600160a01b0316815260200184810384528b818151815260200191508051906020019080838360005b83811015610178578181015183820152602001610160565b50505050905090810190601f1680156101a55780820380516001836020036101000a031916815260200191505b5084810383528a5181528a516020918201918c019080838360005b838110156101d85781810151838201526020016101c0565b50505050905090810190601f1680156102055780820380516001836020036101000a031916815260200191505b50848103825286518152865160209182019188019080838360005b83811015610238578181015183820152602001610220565b50505050905090810190601f1680156102655780820380516001836020036101000a031916815260200191505b509b50505050505050505050505060405180910390f35b34801561028857600080fd5b50610291610704565b60408051918252519081900360200190f35b3480156102af57600080fd5b5061046c600480360360808110156102c657600080fd5b8101906020810181356401000000008111156102e157600080fd5b8201836020820111156102f357600080fd5b8035906020019184600183028401116401000000008311171561031557600080fd5b91908080601f016020809104026020016040519081016040528093929190818152602001838380828437600092019190915250929594936020810193503591505064010000000081111561036857600080fd5b82018360208201111561037a57600080fd5b8035906020019184600183028401116401000000008311171561039c57600080fd5b91908080601f016020809104026020016040519081016040528093929190818152602001838380828437600092019190915250929584359590949093506040810192506020013590506401000000008111156103f757600080fd5b82018360208201111561040957600080fd5b8035906020019184600183028401116401000000008311171561042b57600080fd5b91908080601f01602080910402602001604051908101604052809392919081815260200183838082843760009201919091525092955061070a945050505050565b005b61046c6004803603602081101561048457600080fd5b50356109ee565b6000805460408051602060026001851615610100026000190190941693909304601f810184900484028201840190925281815292918301828280156105115780601f106104e657610100808354040283529160200191610511565b820191906000526020600020905b8154815290600101906020018083116104f457829003601f168201915b505050505081565b60026020818152600092835260409283902080546001808301805487519281161561010002600019011695909504601f81018590048502820185019096528581529094919390929091908301828280156105b45780601f10610589576101008083540402835291602001916105b4565b820191906000526020600020905b81548152906001019060200180831161059757829003601f168201915b50505060028085018054604080516020601f60001961010060018716150201909416959095049283018590048502810185019091528181529596959450909250908301828280156106465780601f1061061b57610100808354040283529160200191610646565b820191906000526020600020905b81548152906001019060200180831161062957829003601f168201915b505050600384015460048501546005860154600687018054604080516020601f600260001961010060018816150201909516949094049384018190048102820181019092528281529899959894975092955090918301828280156106eb5780601f106106c0576101008083540402835291602001916106eb565b820191906000526020600020905b8154815290600101906020018083116106ce57829003601f168201915b505050600790930154919250506001600160a01b031688565b60015481565b600084511161071857600080fd5b600083511161072657600080fd5b600081511161073457600080fd5b6000821161074157600080fd5b3361074b57600080fd5b6040805161010081018252600180548083526020808401898152848601899052606085018890526000608086018190524260a087015260c086018890523360e0870152928352600282529490912083518155935180519394936107b5938501929190910190610ee5565b50604082015180516107d1916002840191602090910190610ee5565b50606082015160038201556080820151600482015560a0820151600582015560c0820151805161080b916006840191602090910190610ee5565b5060e08201518160070160006101000a8154816001600160a01b0302191690836001600160a01b031602179055509050507ffc2edff68ce5ffc5450d5fd11773bfef46bbd1ab5ff60246d63fe8f8bfc3087c600154858585600042873360405180898152602001806020018060200188815260200187815260200186815260200180602001856001600160a01b03166001600160a01b0316815260200184810384528b818151815260200191508051906020019080838360005b838110156108dd5781810151838201526020016108c5565b50505050905090810190601f16801561090a5780820380516001836020036101000a031916815260200191505b5084810383528a5181528a516020918201918c019080838360005b8381101561093d578181015183820152602001610925565b50505050905090810190601f16801561096a5780820380516001836020036101000a031916815260200191505b50848103825286518152865160209182019188019080838360005b8381101561099d578181015183820152602001610985565b50505050905090810190601f1680156109ca5780820380516001836020036101000a031916815260200191505b509b50505050505050505050505060405180910390a1505060018054810190555050565b60015481106109fc57600080fd5b60003411610a0957600080fd5b610a11610f63565b6000828152600260208181526040928390208351610100808201865282548252600180840180548851928116159093026000190190921695909504601f81018590048502860185019096528585529094919385840193909290830182828015610abb5780601f10610a9057610100808354040283529160200191610abb565b820191906000526020600020905b815481529060010190602001808311610a9e57829003601f168201915b5050509183525050600282810180546040805160206001841615610100026000190190931694909404601f81018390048302850183019091528084529381019390830182828015610b4d5780601f10610b2257610100808354040283529160200191610b4d565b820191906000526020600020905b815481529060010190602001808311610b3057829003601f168201915b50505050508152602001600382015481526020016004820154815260200160058201548152602001600682018054600181600116156101000203166002900480601f016020809104026020016040519081016040528092919081815260200182805460018160011615610100020316600290048015610c0d5780601f10610be257610100808354040283529160200191610c0d565b820191906000526020600020905b815481529060010190602001808311610bf057829003601f168201915b5050509183525050600791909101546001600160a01b0390811660209092019190915260e082015160405192935091908216903480156108fc02916000818181858888f19350505050158015610c67573d6000803e3d6000fd5b50608082018051340190526000838152600260209081526040909120835181558184015180518593610ca0926001850192910190610ee5565b5060408201518051610cbc916002840191602090910190610ee5565b50606082015160038201556080820151600482015560a0820151600582015560c08201518051610cf6916006840191602090910190610ee5565b5060e08201518160070160006101000a8154816001600160a01b0302191690836001600160a01b031602179055509050507fa164387cd1abd9b551cdf9c5a28452a361ebcdc47d9429a5a05abc3f307b1dcd8383602001518460400151856060015186608001518760a001518860c001518860405180898152602001806020018060200188815260200187815260200186815260200180602001856001600160a01b03166001600160a01b0316815260200184810384528b818151815260200191508051906020019080838360005b83811015610ddd578181015183820152602001610dc5565b50505050905090810190601f168015610e0a5780820380516001836020036101000a031916815260200191505b5084810383528a5181528a516020918201918c019080838360005b83811015610e3d578181015183820152602001610e25565b50505050905090810190601f168015610e6a5780820380516001836020036101000a031916815260200191505b50848103825286518152865160209182019188019080838360005b83811015610e9d578181015183820152602001610e85565b50505050905090810190601f168015610eca5780820380516001836020036101000a031916815260200191505b509b50505050505050505050505060405180910390a1505050565b828054600181600116156101000203166002900490600052602060002090601f016020900481019282601f10610f2657805160ff1916838001178555610f53565b82800160010185558215610f53579182015b82811115610f53578251825591602001919060010190610f38565b50610f5f929150610fb1565b5090565b6040518061010001604052806000815260200160608152602001606081526020016000815260200160008152602001600081526020016060815260200160006001600160a01b031681525090565b610fcb91905b80821115610f5f5760008155600101610fb7565b9056fea265627a7a7231582069e3057efdff14f226395eb3a1973007ca54593880a3e0a089656716a9f7501464736f6c63430005100032",
  "source": "pragma solidity ^0.5.16;\n\ncontract DcentraFunding {\n    string public name = \"DcentraFunding\";\n    uint public projectCount = 0;\n    mapping (uint => Project) public projects;\n\n    struct Project {\n        uint id;\n        string title;\n        string description;\n        uint goal;\n        uint received;\n        uint date;\n        string imageHash;\n        address payable creator;\n    }\n\n    event ProjectCreated (\n        uint id,\n        string title,\n        string description,\n        uint goal,\n        uint received,\n        uint date,\n        string imageHash,\n        address payable creator\n    );\n\n    event ProjectFunded(\n        uint id,\n        string title,\n        string description,\n        uint goal,\n        uint received,\n        uint date,\n        string imageHash,\n        address payable creator\n    );\n\n    function createProject (string memory _title, string memory _desc, uint _goal, string memory _imageHash) public {\n        // Make sure data sent is complete\n        require(bytes(_title).length > 0);\n        require(bytes(_desc).length > 0);\n        require(bytes(_imageHash).length > 0);\n        require(_goal > 0);\n        require(msg.sender != address(0));\n\n        projects[projectCount] = Project(projectCount, _title, _desc, _goal, 0, block.timestamp, _imageHash, msg.sender);\n        emit ProjectCreated(projectCount, _title, _desc, _goal, 0, block.timestamp, _imageHash, msg.sender);\n        \n        projectCount++;\n    }\n\n    function updateReceivedFunds (uint _id) public payable {\n        // make sure id is valid\n        require(_id >= 0 && _id < projectCount);\n        // make sure funds are higher than 0\n        require(msg.value > 0);\n        // fetch project\n        Project memory _project = projects[_id];\n        // fetch creator\n        address payable _creator = _project.creator;\n        // pay creator\n        address(_creator).transfer(msg.value);\n        // increment received funds\n        _project.received += msg.value;\n        // update project\n        projects[_id] = _project;\n        // trigger event\n        emit ProjectFunded(_id, _project.title, _project.description, _project.goal, _project.received, _project.date, _project.imageHash, _creator);\n    }\n}",
  "sourcePath": "/home/ben/Documents/Code/dcentra-funding/src/contracts/DcentraFunding.sol",
  "compiler": {
    "name": "solc",
    "version": "0.5.16+commit.9c3226ce.Emscripten.clang"
  },
  "schemaVersion": "3.4.3",
  "updatedAt": "2021-10-07T16:27:03.199Z",
  "networkType": "ethereum",
  "devdoc": {
    "methods": {}
  },
  "userdoc": {
    "methods": {}
  }
}