{
  "contractName": "DcentraFunding",
  "abi": [
    {
      "anonymous": false,
      "inputs": [
        {
          "indexed": false,
          "internalType": "uint256",
          "name": "id",
          "type": "uint256"
        },
        {
          "indexed": false,
          "internalType": "string",
          "name": "title",
          "type": "string"
        },
        {
          "indexed": false,
          "internalType": "string",
          "name": "description",
          "type": "string"
        },
        {
          "indexed": false,
          "internalType": "uint256",
          "name": "goal",
          "type": "uint256"
        },
        {
          "indexed": false,
          "internalType": "uint256",
          "name": "received",
          "type": "uint256"
        },
        {
          "indexed": false,
          "internalType": "uint256",
          "name": "date",
          "type": "uint256"
        },
        {
          "indexed": false,
          "internalType": "string",
          "name": "imageHash",
          "type": "string"
        },
        {
          "indexed": false,
          "internalType": "string",
          "name": "category",
          "type": "string"
        },
        {
          "indexed": false,
          "internalType": "address payable",
          "name": "creator",
          "type": "address"
        }
      ],
      "name": "ProjectCreated",
      "type": "event"
    },
    {
      "anonymous": false,
      "inputs": [
        {
          "indexed": false,
          "internalType": "uint256",
          "name": "id",
          "type": "uint256"
        },
        {
          "indexed": false,
          "internalType": "string",
          "name": "title",
          "type": "string"
        },
        {
          "indexed": false,
          "internalType": "string",
          "name": "description",
          "type": "string"
        },
        {
          "indexed": false,
          "internalType": "uint256",
          "name": "goal",
          "type": "uint256"
        },
        {
          "indexed": false,
          "internalType": "uint256",
          "name": "received",
          "type": "uint256"
        },
        {
          "indexed": false,
          "internalType": "uint256",
          "name": "date",
          "type": "uint256"
        },
        {
          "indexed": false,
          "internalType": "string",
          "name": "imageHash",
          "type": "string"
        },
        {
          "indexed": false,
          "internalType": "string",
          "name": "category",
          "type": "string"
        },
        {
          "indexed": false,
          "internalType": "address payable",
          "name": "creator",
          "type": "address"
        }
      ],
      "name": "ProjectFunded",
      "type": "event"
    },
    {
      "constant": true,
      "inputs": [],
      "name": "name",
      "outputs": [
        {
          "internalType": "string",
          "name": "",
          "type": "string"
        }
      ],
      "payable": false,
      "stateMutability": "view",
      "type": "function"
    },
    {
      "constant": true,
      "inputs": [],
      "name": "projectCount",
      "outputs": [
        {
          "internalType": "uint256",
          "name": "",
          "type": "uint256"
        }
      ],
      "payable": false,
      "stateMutability": "view",
      "type": "function"
    },
    {
      "constant": true,
      "inputs": [
        {
          "internalType": "uint256",
          "name": "",
          "type": "uint256"
        }
      ],
      "name": "projects",
      "outputs": [
        {
          "internalType": "uint256",
          "name": "id",
          "type": "uint256"
        },
        {
          "internalType": "string",
          "name": "title",
          "type": "string"
        },
        {
          "internalType": "string",
          "name": "description",
          "type": "string"
        },
        {
          "internalType": "uint256",
          "name": "goal",
          "type": "uint256"
        },
        {
          "internalType": "uint256",
          "name": "received",
          "type": "uint256"
        },
        {
          "internalType": "uint256",
          "name": "date",
          "type": "uint256"
        },
        {
          "internalType": "string",
          "name": "imageHash",
          "type": "string"
        },
        {
          "internalType": "string",
          "name": "category",
          "type": "string"
        },
        {
          "internalType": "address payable",
          "name": "creator",
          "type": "address"
        }
      ],
      "payable": false,
      "stateMutability": "view",
      "type": "function"
    },
    {
      "constant": false,
      "inputs": [
        {
          "internalType": "string",
          "name": "_title",
          "type": "string"
        },
        {
          "internalType": "string",
          "name": "_desc",
          "type": "string"
        },
        {
          "internalType": "uint256",
          "name": "_goal",
          "type": "uint256"
        },
        {
          "internalType": "string",
          "name": "_imageHash",
          "type": "string"
        },
        {
          "internalType": "string",
          "name": "_category",
          "type": "string"
        }
      ],
      "name": "createProject",
      "outputs": [],
      "payable": false,
      "stateMutability": "nonpayable",
      "type": "function"
    },
    {
      "constant": false,
      "inputs": [
        {
          "internalType": "uint256",
          "name": "_id",
          "type": "uint256"
        }
      ],
      "name": "updateReceivedFunds",
      "outputs": [],
      "payable": true,
      "stateMutability": "payable",
      "type": "function"
    }
  ],
  "bytecode": "0x60c0604052600e60808190526d4463656e74726146756e64696e6760901b60a09081526200003191600091906200004b565b5060006001553480156200004457600080fd5b50620000f0565b828054600181600116156101000203166002900490600052602060002090601f016020900481019282601f106200008e57805160ff1916838001178555620000be565b82800160010185558215620000be579182015b82811115620000be578251825591602001919060010190620000a1565b50620000cc929150620000d0565b5090565b620000ed91905b80821115620000cc5760008155600101620000d7565b90565b61134f80620001006000396000f3fe60806040526004361061004a5760003560e01c806306fdde031461004f578063107046bd146100d95780632ff70111146102e257806336fbad261461052c578063a86a6f9114610553575b600080fd5b34801561005b57600080fd5b50610064610570565b6040805160208082528351818301528351919283929083019185019080838360005b8381101561009e578181015183820152602001610086565b50505050905090810190601f1680156100cb5780820380516001836020036101000a031916815260200191505b509250505060405180910390f35b3480156100e557600080fd5b50610103600480360360208110156100fc57600080fd5b50356105fe565b604051808a815260200180602001806020018981526020018881526020018781526020018060200180602001866001600160a01b03166001600160a01b0316815260200185810385528d818151815260200191508051906020019080838360005b8381101561017c578181015183820152602001610164565b50505050905090810190601f1680156101a95780820380516001836020036101000a031916815260200191505b5085810384528c5181528c516020918201918e019080838360005b838110156101dc5781810151838201526020016101c4565b50505050905090810190601f1680156102095780820380516001836020036101000a031916815260200191505b5085810383528851815288516020918201918a019080838360005b8381101561023c578181015183820152602001610224565b50505050905090810190601f1680156102695780820380516001836020036101000a031916815260200191505b50858103825287518152875160209182019189019080838360005b8381101561029c578181015183820152602001610284565b50505050905090810190601f1680156102c95780820380516001836020036101000a031916815260200191505b509d505050505050505050505050505060405180910390f35b3480156102ee57600080fd5b5061052a600480360360a081101561030557600080fd5b810190602081018135600160201b81111561031f57600080fd5b82018360208201111561033157600080fd5b803590602001918460018302840111600160201b8311171561035257600080fd5b91908080601f0160208091040260200160405190810160405280939291908181526020018383808284376000920191909152509295949360208101935035915050600160201b8111156103a457600080fd5b8201836020820111156103b657600080fd5b803590602001918460018302840111600160201b831117156103d757600080fd5b91908080601f01602080910402602001604051908101604052809392919081815260200183838082843760009201919091525092958435959094909350604081019250602001359050600160201b81111561043157600080fd5b82018360208201111561044357600080fd5b803590602001918460018302840111600160201b8311171561046457600080fd5b91908080601f0160208091040260200160405190810160405280939291908181526020018383808284376000920191909152509295949360208101935035915050600160201b8111156104b657600080fd5b8201836020820111156104c857600080fd5b803590602001918460018302840111600160201b831117156104e957600080fd5b91908080601f016020809104026020016040519081016040528093929190818152602001838380828437600092019190915250929550610879945050505050565b005b34801561053857600080fd5b50610541610bf8565b60408051918252519081900360200190f35b61052a6004803603602081101561056957600080fd5b5035610bfe565b6000805460408051602060026001851615610100026000190190941693909304601f810184900484028201840190925281815292918301828280156105f65780601f106105cb576101008083540402835291602001916105f6565b820191906000526020600020905b8154815290600101906020018083116105d957829003601f168201915b505050505081565b60026020818152600092835260409283902080546001808301805487519281161561010002600019011695909504601f81018590048502820185019096528581529094919390929091908301828280156106995780601f1061066e57610100808354040283529160200191610699565b820191906000526020600020905b81548152906001019060200180831161067c57829003601f168201915b50505060028085018054604080516020601f600019610100600187161502019094169590950492830185900485028101850190915281815295969594509092509083018282801561072b5780601f106107005761010080835404028352916020019161072b565b820191906000526020600020905b81548152906001019060200180831161070e57829003601f168201915b505050600384015460048501546005860154600687018054604080516020601f600260001961010060018816150201909516949094049384018190048102820181019092528281529899959894975092955090918301828280156107d05780601f106107a5576101008083540402835291602001916107d0565b820191906000526020600020905b8154815290600101906020018083116107b357829003601f168201915b5050505060078301805460408051602060026001851615610100026000190190941693909304601f81018490048402820184019092528181529495949350908301828280156108605780601f1061083557610100808354040283529160200191610860565b820191906000526020600020905b81548152906001019060200180831161084357829003601f168201915b505050600890930154919250506001600160a01b031689565b600085511161088757600080fd5b600084511161089557600080fd5b60008251116108a357600080fd5b60008151116108b157600080fd5b600083116108be57600080fd5b336108c857600080fd5b60408051610120810182526001805480835260208084018a81528486018a9052606085018990526000608086018190524260a087015260c0860189905260e08601889052336101008701529283526002825294909120835181559351805193949361093a93850192919091019061122a565b506040820151805161095691600284019160209091019061122a565b50606082015160038201556080820151600482015560a0820151600582015560c0820151805161099091600684019160209091019061122a565b5060e082015180516109ac91600784019160209091019061122a565b506101008201518160080160006101000a8154816001600160a01b0302191690836001600160a01b031602179055509050507fac60638eefacf5367ef51a6618f574171998221501114479b987633b5bea628a600154868686600042888833604051808a815260200180602001806020018981526020018881526020018781526020018060200180602001866001600160a01b03166001600160a01b0316815260200185810385528d818151815260200191508051906020019080838360005b83811015610a84578181015183820152602001610a6c565b50505050905090810190601f168015610ab15780820380516001836020036101000a031916815260200191505b5085810384528c5181528c516020918201918e019080838360005b83811015610ae4578181015183820152602001610acc565b50505050905090810190601f168015610b115780820380516001836020036101000a031916815260200191505b5085810383528851815288516020918201918a019080838360005b83811015610b44578181015183820152602001610b2c565b50505050905090810190601f168015610b715780820380516001836020036101000a031916815260200191505b50858103825287518152875160209182019189019080838360005b83811015610ba4578181015183820152602001610b8c565b50505050905090810190601f168015610bd15780820380516001836020036101000a031916815260200191505b509d505050505050505050505050505060405180910390a150506001805481019055505050565b60015481565b6001548110610c0c57600080fd5b60003411610c1957600080fd5b610c216112a8565b600260008381526020019081526020016000206040518061012001604052908160008201548152602001600182018054600181600116156101000203166002900480601f016020809104026020016040519081016040528092919081815260200182805460018160011615610100020316600290048015610ce35780601f10610cb857610100808354040283529160200191610ce3565b820191906000526020600020905b815481529060010190602001808311610cc657829003601f168201915b5050509183525050600282810180546040805160206001841615610100026000190190931694909404601f81018390048302850183019091528084529381019390830182828015610d755780601f10610d4a57610100808354040283529160200191610d75565b820191906000526020600020905b815481529060010190602001808311610d5857829003601f168201915b50505050508152602001600382015481526020016004820154815260200160058201548152602001600682018054600181600116156101000203166002900480601f016020809104026020016040519081016040528092919081815260200182805460018160011615610100020316600290048015610e355780601f10610e0a57610100808354040283529160200191610e35565b820191906000526020600020905b815481529060010190602001808311610e1857829003601f168201915b505050918352505060078201805460408051602060026001851615610100026000190190941693909304601f8101849004840282018401909252818152938201939291830182828015610ec95780601f10610e9e57610100808354040283529160200191610ec9565b820191906000526020600020905b815481529060010190602001808311610eac57829003601f168201915b5050509183525050600891909101546001600160a01b0390811660209092019190915261010082015160405192935091908216903480156108fc02916000818181858888f19350505050158015610f24573d6000803e3d6000fd5b50608082018051340190526000838152600260209081526040909120835181558184015180518593610f5d92600185019291019061122a565b5060408201518051610f7991600284019160209091019061122a565b50606082015160038201556080820151600482015560a0820151600582015560c08201518051610fb391600684019160209091019061122a565b5060e08201518051610fcf91600784019160209091019061122a565b506101008201518160080160006101000a8154816001600160a01b0302191690836001600160a01b031602179055509050507f40e7ee69b7752556a2822e080331708f155b00055356bb49c73cec9dd96feb488383602001518460400151856060015186608001518760a001518860c001518960e0015189604051808a815260200180602001806020018981526020018881526020018781526020018060200180602001866001600160a01b03166001600160a01b0316815260200185810385528d818151815260200191508051906020019080838360005b838110156110c05781810151838201526020016110a8565b50505050905090810190601f1680156110ed5780820380516001836020036101000a031916815260200191505b5085810384528c5181528c516020918201918e019080838360005b83811015611120578181015183820152602001611108565b50505050905090810190601f16801561114d5780820380516001836020036101000a031916815260200191505b5085810383528851815288516020918201918a019080838360005b83811015611180578181015183820152602001611168565b50505050905090810190601f1680156111ad5780820380516001836020036101000a031916815260200191505b50858103825287518152875160209182019189019080838360005b838110156111e05781810151838201526020016111c8565b50505050905090810190601f16801561120d5780820380516001836020036101000a031916815260200191505b509d505050505050505050505050505060405180910390a1505050565b828054600181600116156101000203166002900490600052602060002090601f016020900481019282601f1061126b57805160ff1916838001178555611298565b82800160010185558215611298579182015b8281111561129857825182559160200191906001019061127d565b506112a49291506112fd565b5090565b604051806101200160405280600081526020016060815260200160608152602001600081526020016000815260200160008152602001606081526020016060815260200160006001600160a01b031681525090565b61131791905b808211156112a45760008155600101611303565b9056fea265627a7a723158203b7b6f130dda792566e5b77289908b5befcd54215f02d335b883aabc94cfc17c64736f6c63430005100032",
  "source": "pragma solidity ^0.5.16;\n\ncontract DcentraFunding {\n    string public name = \"DcentraFunding\";\n    uint public projectCount = 0;\n    mapping (uint => Project) public projects;\n\n    struct Project {\n        uint id;\n        string title;\n        string description;\n        uint goal;\n        uint received;\n        uint date;\n        string imageHash;\n        string category;\n        address payable creator;\n    }\n\n    event ProjectCreated (\n        uint id,\n        string title,\n        string description,\n        uint goal,\n        uint received,\n        uint date,\n        string imageHash,\n        string category,\n        address payable creator\n    );\n\n    event ProjectFunded(\n        uint id,\n        string title,\n        string description,\n        uint goal,\n        uint received,\n        uint date,\n        string imageHash,\n        string category,\n        address payable creator\n    );\n\n    function createProject (string memory _title, string memory _desc, uint _goal, string memory _imageHash, string memory _category) public {\n        // Make sure data sent is complete\n        require(bytes(_title).length > 0);\n        require(bytes(_desc).length > 0);\n        require(bytes(_imageHash).length > 0);\n        require(bytes(_category).length > 0);\n        require(_goal > 0);\n        require(msg.sender != address(0));\n\n        projects[projectCount] = Project(projectCount, _title, _desc, _goal, 0, block.timestamp, _imageHash, _category,msg.sender);\n        emit ProjectCreated(\n            projectCount,\n            _title,\n            _desc,\n            _goal,\n            0,\n            block.timestamp,\n            _imageHash,\n            _category,\n            msg.sender\n        );\n        \n        projectCount++;\n    }\n\n    function updateReceivedFunds (uint _id) public payable {\n        // Todo: Validate category\n        \n        // make sure id is valid\n        require(_id >= 0 && _id < projectCount);\n        // make sure funds are higher than 0\n        require(msg.value > 0);\n        // fetch project\n        Project memory _project = projects[_id];\n        // fetch creator\n        address payable _creator = _project.creator;\n        // pay creator\n        address(_creator).transfer(msg.value);\n        // increment received funds\n        _project.received += msg.value;\n        // update project\n        projects[_id] = _project;\n        // trigger event\n        emit ProjectFunded(\n            _id, \n            _project.title,\n            _project.description,\n            _project.goal,\n            _project.received,\n            _project.date,\n            _project.imageHash,\n            _project.category,\n            _creator\n        );\n    }\n}",
  "sourcePath": "/home/ben/Documents/Code/dcentra-funding/src/contracts/DcentraFunding.sol",
  "compiler": {
    "name": "solc",
    "version": "0.5.16+commit.9c3226ce.Emscripten.clang"
  },
  "schemaVersion": "3.4.3",
  "updatedAt": "2021-11-12T14:09:06.343Z",
  "networkType": "ethereum",
  "devdoc": {
    "methods": {}
  },
  "userdoc": {
    "methods": {}
  }
}