{
  "contractName": "DcentraFunding",
  "abi": [
    {
      "anonymous": false,
      "inputs": [
        {
          "indexed": false,
          "internalType": "uint256",
          "name": "id",
          "type": "uint256"
        },
        {
          "indexed": false,
          "internalType": "string",
          "name": "title",
          "type": "string"
        },
        {
          "indexed": false,
          "internalType": "string",
          "name": "description",
          "type": "string"
        },
        {
          "indexed": false,
          "internalType": "uint256",
          "name": "goal",
          "type": "uint256"
        },
        {
          "indexed": false,
          "internalType": "uint256",
          "name": "received",
          "type": "uint256"
        },
        {
          "indexed": false,
          "internalType": "uint256",
          "name": "date",
          "type": "uint256"
        },
        {
          "indexed": false,
          "internalType": "string",
          "name": "imageHash",
          "type": "string"
        },
        {
          "indexed": false,
          "internalType": "address payable",
          "name": "creator",
          "type": "address"
        }
      ],
      "name": "ProjectCreated",
      "type": "event"
    },
    {
      "constant": true,
      "inputs": [],
      "name": "name",
      "outputs": [
        {
          "internalType": "string",
          "name": "",
          "type": "string"
        }
      ],
      "payable": false,
      "stateMutability": "view",
      "type": "function"
    },
    {
      "constant": true,
      "inputs": [],
      "name": "projectCount",
      "outputs": [
        {
          "internalType": "uint256",
          "name": "",
          "type": "uint256"
        }
      ],
      "payable": false,
      "stateMutability": "view",
      "type": "function"
    },
    {
      "constant": true,
      "inputs": [
        {
          "internalType": "uint256",
          "name": "",
          "type": "uint256"
        }
      ],
      "name": "projects",
      "outputs": [
        {
          "internalType": "uint256",
          "name": "id",
          "type": "uint256"
        },
        {
          "internalType": "string",
          "name": "title",
          "type": "string"
        },
        {
          "internalType": "string",
          "name": "description",
          "type": "string"
        },
        {
          "internalType": "uint256",
          "name": "goal",
          "type": "uint256"
        },
        {
          "internalType": "uint256",
          "name": "received",
          "type": "uint256"
        },
        {
          "internalType": "uint256",
          "name": "date",
          "type": "uint256"
        },
        {
          "internalType": "string",
          "name": "imageHash",
          "type": "string"
        },
        {
          "internalType": "address payable",
          "name": "creator",
          "type": "address"
        }
      ],
      "payable": false,
      "stateMutability": "view",
      "type": "function"
    },
    {
      "constant": false,
      "inputs": [
        {
          "internalType": "string",
          "name": "_title",
          "type": "string"
        },
        {
          "internalType": "string",
          "name": "_desc",
          "type": "string"
        },
        {
          "internalType": "uint256",
          "name": "_goal",
          "type": "uint256"
        },
        {
          "internalType": "string",
          "name": "_imageHash",
          "type": "string"
        }
      ],
      "name": "createProject",
      "outputs": [],
      "payable": false,
      "stateMutability": "nonpayable",
      "type": "function"
    },
    {
      "constant": false,
      "inputs": [
        {
          "internalType": "uint256",
          "name": "_id",
          "type": "uint256"
        },
        {
          "internalType": "uint256",
          "name": "_received",
          "type": "uint256"
        }
      ],
      "name": "updateReceivedFunds",
      "outputs": [],
      "payable": false,
      "stateMutability": "nonpayable",
      "type": "function"
    }
  ],
  "bytecode": "0x60c0604052600e60808190526d4463656e74726146756e64696e6760901b60a090815261002f9160009190610047565b50600060015534801561004157600080fd5b506100e2565b828054600181600116156101000203166002900490600052602060002090601f016020900481019282601f1061008857805160ff19168380011785556100b5565b828001600101855582156100b5579182015b828111156100b557825182559160200191906001019061009a565b506100c19291506100c5565b5090565b6100df91905b808211156100c157600081556001016100cb565b90565b610aa1806100f16000396000f3fe608060405234801561001057600080fd5b50600436106100575760003560e01c806306fdde031461005c578063107046bd146100d957806336fbad261461026f5780634657571414610289578063484f5c2c14610447575b600080fd5b61006461046a565b6040805160208082528351818301528351919283929083019185019080838360005b8381101561009e578181015183820152602001610086565b50505050905090810190601f1680156100cb5780820380516001836020036101000a031916815260200191505b509250505060405180910390f35b6100f6600480360360208110156100ef57600080fd5b50356104f8565b60405180898152602001806020018060200188815260200187815260200186815260200180602001856001600160a01b03166001600160a01b0316815260200184810384528b818151815260200191508051906020019080838360005b8381101561016b578181015183820152602001610153565b50505050905090810190601f1680156101985780820380516001836020036101000a031916815260200191505b5084810383528a5181528a516020918201918c019080838360005b838110156101cb5781810151838201526020016101b3565b50505050905090810190601f1680156101f85780820380516001836020036101000a031916815260200191505b50848103825286518152865160209182019188019080838360005b8381101561022b578181015183820152602001610213565b50505050905090810190601f1680156102585780820380516001836020036101000a031916815260200191505b509b50505050505050505050505060405180910390f35b6102776106e3565b60408051918252519081900360200190f35b6104456004803603608081101561029f57600080fd5b8101906020810181356401000000008111156102ba57600080fd5b8201836020820111156102cc57600080fd5b803590602001918460018302840111640100000000831117156102ee57600080fd5b91908080601f016020809104026020016040519081016040528093929190818152602001838380828437600092019190915250929594936020810193503591505064010000000081111561034157600080fd5b82018360208201111561035357600080fd5b8035906020019184600183028401116401000000008311171561037557600080fd5b91908080601f016020809104026020016040519081016040528093929190818152602001838380828437600092019190915250929584359590949093506040810192506020013590506401000000008111156103d057600080fd5b8201836020820111156103e257600080fd5b8035906020019184600183028401116401000000008311171561040457600080fd5b91908080601f0160208091040260200160405190810160405280939291908181526020018383808284376000920191909152509295506106e9945050505050565b005b6104456004803603604081101561045d57600080fd5b50803590602001356109cd565b6000805460408051602060026001851615610100026000190190941693909304601f810184900484028201840190925281815292918301828280156104f05780601f106104c5576101008083540402835291602001916104f0565b820191906000526020600020905b8154815290600101906020018083116104d357829003601f168201915b505050505081565b60026020818152600092835260409283902080546001808301805487519281161561010002600019011695909504601f81018590048502820185019096528581529094919390929091908301828280156105935780601f1061056857610100808354040283529160200191610593565b820191906000526020600020905b81548152906001019060200180831161057657829003601f168201915b50505060028085018054604080516020601f60001961010060018716150201909416959095049283018590048502810185019091528181529596959450909250908301828280156106255780601f106105fa57610100808354040283529160200191610625565b820191906000526020600020905b81548152906001019060200180831161060857829003601f168201915b505050600384015460048501546005860154600687018054604080516020601f600260001961010060018816150201909516949094049384018190048102820181019092528281529899959894975092955090918301828280156106ca5780601f1061069f576101008083540402835291602001916106ca565b820191906000526020600020905b8154815290600101906020018083116106ad57829003601f168201915b505050600790930154919250506001600160a01b031688565b60015481565b60008451116106f757600080fd5b600083511161070557600080fd5b600081511161071357600080fd5b6000821161072057600080fd5b3361072a57600080fd5b6040805161010081018252600180548083526020808401898152848601899052606085018890526000608086018190524260a087015260c086018890523360e0870152928352600282529490912083518155935180519394936107949385019291909101906109d1565b50604082015180516107b09160028401916020909101906109d1565b50606082015160038201556080820151600482015560a0820151600582015560c082015180516107ea9160068401916020909101906109d1565b5060e08201518160070160006101000a8154816001600160a01b0302191690836001600160a01b031602179055509050507ffc2edff68ce5ffc5450d5fd11773bfef46bbd1ab5ff60246d63fe8f8bfc3087c600154858585600042873360405180898152602001806020018060200188815260200187815260200186815260200180602001856001600160a01b03166001600160a01b0316815260200184810384528b818151815260200191508051906020019080838360005b838110156108bc5781810151838201526020016108a4565b50505050905090810190601f1680156108e95780820380516001836020036101000a031916815260200191505b5084810383528a5181528a516020918201918c019080838360005b8381101561091c578181015183820152602001610904565b50505050905090810190601f1680156109495780820380516001836020036101000a031916815260200191505b50848103825286518152865160209182019188019080838360005b8381101561097c578181015183820152602001610964565b50505050905090810190601f1680156109a95780820380516001836020036101000a031916815260200191505b509b50505050505050505050505060405180910390a1505060018054810190555050565b5050565b828054600181600116156101000203166002900490600052602060002090601f016020900481019282601f10610a1257805160ff1916838001178555610a3f565b82800160010185558215610a3f579182015b82811115610a3f578251825591602001919060010190610a24565b50610a4b929150610a4f565b5090565b610a6991905b80821115610a4b5760008155600101610a55565b9056fea265627a7a72315820cac6fc51551383b280add4959b4a7cd7ed65c7def92c70c68cef7f4899a6d70964736f6c63430005100032",
  "source": "pragma solidity ^0.5.16;\n\ncontract DcentraFunding {\n    string public name = \"DcentraFunding\";\n    uint public projectCount = 0;\n    mapping (uint => Project) public projects;\n\n    struct Project {\n        uint id;\n        string title;\n        string description;\n        uint goal;\n        uint received;\n        uint date;\n        string imageHash;\n        address payable creator;\n    }\n\n    event ProjectCreated (\n        uint id,\n        string title,\n        string description,\n        uint goal,\n        uint received,\n        uint date,\n        string imageHash,\n        address payable creator\n    );\n\n    function createProject (string memory _title, string memory _desc, uint _goal, string memory _imageHash) public {\n        // Make sure data sent is complete\n        require(bytes(_title).length > 0);\n        require(bytes(_desc).length > 0);\n        require(bytes(_imageHash).length > 0);\n        require(_goal > 0);\n        require(msg.sender != address(0));\n\n        projects[projectCount] = Project(projectCount, _title, _desc, _goal, 0, block.timestamp, _imageHash, msg.sender);\n        emit ProjectCreated(projectCount, _title, _desc, _goal, 0, block.timestamp, _imageHash, msg.sender);\n        \n        projectCount++;\n    }\n\n    function updateReceivedFunds (uint _id, uint _received) public {\n\n    }\n}",
  "sourcePath": "/home/ben/Documents/Code/dcentra-funding/src/contracts/DcentraFunding.sol",
  "compiler": {
    "name": "solc",
    "version": "0.5.16+commit.9c3226ce.Emscripten.clang"
  },
  "schemaVersion": "3.4.3",
  "updatedAt": "2021-10-05T21:40:29.534Z",
  "networkType": "ethereum",
  "devdoc": {
    "methods": {}
  },
  "userdoc": {
    "methods": {}
  }
}