{
  "contractName": "DcentraFunding",
  "abi": [
    {
      "anonymous": false,
      "inputs": [
        {
          "indexed": false,
          "internalType": "uint256",
          "name": "id",
          "type": "uint256"
        },
        {
          "indexed": false,
          "internalType": "string",
          "name": "title",
          "type": "string"
        },
        {
          "indexed": false,
          "internalType": "string",
          "name": "description",
          "type": "string"
        },
        {
          "indexed": false,
          "internalType": "uint256",
          "name": "goal",
          "type": "uint256"
        },
        {
          "indexed": false,
          "internalType": "uint256",
          "name": "received",
          "type": "uint256"
        },
        {
          "indexed": false,
          "internalType": "uint256",
          "name": "date",
          "type": "uint256"
        },
        {
          "indexed": false,
          "internalType": "string",
          "name": "imageHash",
          "type": "string"
        },
        {
          "indexed": false,
          "internalType": "string",
          "name": "category",
          "type": "string"
        },
        {
          "indexed": false,
          "internalType": "address payable",
          "name": "creator",
          "type": "address"
        }
      ],
      "name": "ProjectCreated",
      "type": "event"
    },
    {
      "anonymous": false,
      "inputs": [
        {
          "indexed": false,
          "internalType": "uint256",
          "name": "id",
          "type": "uint256"
        },
        {
          "indexed": false,
          "internalType": "string",
          "name": "title",
          "type": "string"
        },
        {
          "indexed": false,
          "internalType": "string",
          "name": "description",
          "type": "string"
        },
        {
          "indexed": false,
          "internalType": "uint256",
          "name": "goal",
          "type": "uint256"
        },
        {
          "indexed": false,
          "internalType": "uint256",
          "name": "received",
          "type": "uint256"
        },
        {
          "indexed": false,
          "internalType": "uint256",
          "name": "date",
          "type": "uint256"
        },
        {
          "indexed": false,
          "internalType": "string",
          "name": "imageHash",
          "type": "string"
        },
        {
          "indexed": false,
          "internalType": "string",
          "name": "category",
          "type": "string"
        },
        {
          "indexed": false,
          "internalType": "address payable",
          "name": "creator",
          "type": "address"
        }
      ],
      "name": "ProjectFunded",
      "type": "event"
    },
    {
      "constant": true,
      "inputs": [],
      "name": "name",
      "outputs": [
        {
          "internalType": "string",
          "name": "",
          "type": "string"
        }
      ],
      "payable": false,
      "stateMutability": "view",
      "type": "function"
    },
    {
      "constant": true,
      "inputs": [],
      "name": "projectCount",
      "outputs": [
        {
          "internalType": "uint256",
          "name": "",
          "type": "uint256"
        }
      ],
      "payable": false,
      "stateMutability": "view",
      "type": "function"
    },
    {
      "constant": true,
      "inputs": [
        {
          "internalType": "uint256",
          "name": "",
          "type": "uint256"
        }
      ],
      "name": "projects",
      "outputs": [
        {
          "internalType": "uint256",
          "name": "id",
          "type": "uint256"
        },
        {
          "internalType": "string",
          "name": "title",
          "type": "string"
        },
        {
          "internalType": "string",
          "name": "description",
          "type": "string"
        },
        {
          "internalType": "uint256",
          "name": "goal",
          "type": "uint256"
        },
        {
          "internalType": "uint256",
          "name": "received",
          "type": "uint256"
        },
        {
          "internalType": "uint256",
          "name": "date",
          "type": "uint256"
        },
        {
          "internalType": "string",
          "name": "imageHash",
          "type": "string"
        },
        {
          "internalType": "string",
          "name": "category",
          "type": "string"
        },
        {
          "internalType": "address payable",
          "name": "creator",
          "type": "address"
        }
      ],
      "payable": false,
      "stateMutability": "view",
      "type": "function"
    },
    {
      "constant": true,
      "inputs": [
        {
          "internalType": "string",
          "name": "",
          "type": "string"
        }
      ],
      "name": "projectsByCategory",
      "outputs": [
        {
          "internalType": "uint256",
          "name": "id",
          "type": "uint256"
        },
        {
          "internalType": "string",
          "name": "title",
          "type": "string"
        },
        {
          "internalType": "string",
          "name": "description",
          "type": "string"
        },
        {
          "internalType": "uint256",
          "name": "goal",
          "type": "uint256"
        },
        {
          "internalType": "uint256",
          "name": "received",
          "type": "uint256"
        },
        {
          "internalType": "uint256",
          "name": "date",
          "type": "uint256"
        },
        {
          "internalType": "string",
          "name": "imageHash",
          "type": "string"
        },
        {
          "internalType": "string",
          "name": "category",
          "type": "string"
        },
        {
          "internalType": "address payable",
          "name": "creator",
          "type": "address"
        }
      ],
      "payable": false,
      "stateMutability": "view",
      "type": "function"
    },
    {
      "constant": false,
      "inputs": [
        {
          "internalType": "string",
          "name": "_title",
          "type": "string"
        },
        {
          "internalType": "string",
          "name": "_desc",
          "type": "string"
        },
        {
          "internalType": "uint256",
          "name": "_goal",
          "type": "uint256"
        },
        {
          "internalType": "string",
          "name": "_imageHash",
          "type": "string"
        },
        {
          "internalType": "string",
          "name": "_category",
          "type": "string"
        }
      ],
      "name": "createProject",
      "outputs": [],
      "payable": false,
      "stateMutability": "nonpayable",
      "type": "function"
    },
    {
      "constant": false,
      "inputs": [
        {
          "internalType": "uint256",
          "name": "_id",
          "type": "uint256"
        }
      ],
      "name": "updateReceivedFunds",
      "outputs": [],
      "payable": true,
      "stateMutability": "payable",
      "type": "function"
    }
  ],
  "bytecode": "0x60c0604052600e60808190526d4463656e74726146756e64696e6760901b60a09081526200003191600091906200004b565b5060006001553480156200004457600080fd5b50620000f0565b828054600181600116156101000203166002900490600052602060002090601f016020900481019282601f106200008e57805160ff1916838001178555620000be565b82800160010185558215620000be579182015b82811115620000be578251825591602001919060010190620000a1565b50620000cc929150620000d0565b5090565b620000ed91905b80821115620000cc5760008155600101620000d7565b90565b61148880620001006000396000f3fe6080604052600436106100555760003560e01c806306fdde031461005a578063107046bd146100e45780632ff70111146102ed57806336fbad2614610537578063a86a6f911461055e578063e4f2498f1461057b575b600080fd5b34801561006657600080fd5b5061006f61062c565b6040805160208082528351818301528351919283929083019185019080838360005b838110156100a9578181015183820152602001610091565b50505050905090810190601f1680156100d65780820380516001836020036101000a031916815260200191505b509250505060405180910390f35b3480156100f057600080fd5b5061010e6004803603602081101561010757600080fd5b50356106ba565b604051808a815260200180602001806020018981526020018881526020018781526020018060200180602001866001600160a01b03166001600160a01b0316815260200185810385528d818151815260200191508051906020019080838360005b8381101561018757818101518382015260200161016f565b50505050905090810190601f1680156101b45780820380516001836020036101000a031916815260200191505b5085810384528c5181528c516020918201918e019080838360005b838110156101e75781810151838201526020016101cf565b50505050905090810190601f1680156102145780820380516001836020036101000a031916815260200191505b5085810383528851815288516020918201918a019080838360005b8381101561024757818101518382015260200161022f565b50505050905090810190601f1680156102745780820380516001836020036101000a031916815260200191505b50858103825287518152875160209182019189019080838360005b838110156102a757818101518382015260200161028f565b50505050905090810190601f1680156102d45780820380516001836020036101000a031916815260200191505b509d505050505050505050505050505060405180910390f35b3480156102f957600080fd5b50610535600480360360a081101561031057600080fd5b810190602081018135600160201b81111561032a57600080fd5b82018360208201111561033c57600080fd5b803590602001918460018302840111600160201b8311171561035d57600080fd5b91908080601f0160208091040260200160405190810160405280939291908181526020018383808284376000920191909152509295949360208101935035915050600160201b8111156103af57600080fd5b8201836020820111156103c157600080fd5b803590602001918460018302840111600160201b831117156103e257600080fd5b91908080601f01602080910402602001604051908101604052809392919081815260200183838082843760009201919091525092958435959094909350604081019250602001359050600160201b81111561043c57600080fd5b82018360208201111561044e57600080fd5b803590602001918460018302840111600160201b8311171561046f57600080fd5b91908080601f0160208091040260200160405190810160405280939291908181526020018383808284376000920191909152509295949360208101935035915050600160201b8111156104c157600080fd5b8201836020820111156104d357600080fd5b803590602001918460018302840111600160201b831117156104f457600080fd5b91908080601f016020809104026020016040519081016040528093929190818152602001838380828437600092019190915250929550610935945050505050565b005b34801561054357600080fd5b5061054c610cb4565b60408051918252519081900360200190f35b6105356004803603602081101561057457600080fd5b5035610cba565b34801561058757600080fd5b5061010e6004803603602081101561059e57600080fd5b810190602081018135600160201b8111156105b857600080fd5b8201836020820111156105ca57600080fd5b803590602001918460018302840111600160201b831117156105eb57600080fd5b91908080601f0160208091040260200160405190810160405280939291908181526020018383808284376000920191909152509295506112e6945050505050565b6000805460408051602060026001851615610100026000190190941693909304601f810184900484028201840190925281815292918301828280156106b25780601f10610687576101008083540402835291602001916106b2565b820191906000526020600020905b81548152906001019060200180831161069557829003601f168201915b505050505081565b60026020818152600092835260409283902080546001808301805487519281161561010002600019011695909504601f81018590048502820185019096528581529094919390929091908301828280156107555780601f1061072a57610100808354040283529160200191610755565b820191906000526020600020905b81548152906001019060200180831161073857829003601f168201915b50505060028085018054604080516020601f60001961010060018716150201909416959095049283018590048502810185019091528181529596959450909250908301828280156107e75780601f106107bc576101008083540402835291602001916107e7565b820191906000526020600020905b8154815290600101906020018083116107ca57829003601f168201915b505050600384015460048501546005860154600687018054604080516020601f6002600019610100600188161502019095169490940493840181900481028201810190925282815298999598949750929550909183018282801561088c5780601f106108615761010080835404028352916020019161088c565b820191906000526020600020905b81548152906001019060200180831161086f57829003601f168201915b5050505060078301805460408051602060026001851615610100026000190190941693909304601f810184900484028201840190925281815294959493509083018282801561091c5780601f106108f15761010080835404028352916020019161091c565b820191906000526020600020905b8154815290600101906020018083116108ff57829003601f168201915b505050600890930154919250506001600160a01b031689565b600085511161094357600080fd5b600084511161095157600080fd5b600082511161095f57600080fd5b600081511161096d57600080fd5b6000831161097a57600080fd5b3361098457600080fd5b60408051610120810182526001805480835260208084018a81528486018a9052606085018990526000608086018190524260a087015260c0860189905260e0860188905233610100870152928352600282529490912083518155935180519394936109f6938501929190910190611363565b5060408201518051610a12916002840191602090910190611363565b50606082015160038201556080820151600482015560a0820151600582015560c08201518051610a4c916006840191602090910190611363565b5060e08201518051610a68916007840191602090910190611363565b506101008201518160080160006101000a8154816001600160a01b0302191690836001600160a01b031602179055509050507fac60638eefacf5367ef51a6618f574171998221501114479b987633b5bea628a600154868686600042888833604051808a815260200180602001806020018981526020018881526020018781526020018060200180602001866001600160a01b03166001600160a01b0316815260200185810385528d818151815260200191508051906020019080838360005b83811015610b40578181015183820152602001610b28565b50505050905090810190601f168015610b6d5780820380516001836020036101000a031916815260200191505b5085810384528c5181528c516020918201918e019080838360005b83811015610ba0578181015183820152602001610b88565b50505050905090810190601f168015610bcd5780820380516001836020036101000a031916815260200191505b5085810383528851815288516020918201918a019080838360005b83811015610c00578181015183820152602001610be8565b50505050905090810190601f168015610c2d5780820380516001836020036101000a031916815260200191505b50858103825287518152875160209182019189019080838360005b83811015610c60578181015183820152602001610c48565b50505050905090810190601f168015610c8d5780820380516001836020036101000a031916815260200191505b509d505050505050505050505050505060405180910390a150506001805481019055505050565b60015481565b6001548110610cc857600080fd5b60003411610cd557600080fd5b610cdd6113e1565b600260008381526020019081526020016000206040518061012001604052908160008201548152602001600182018054600181600116156101000203166002900480601f016020809104026020016040519081016040528092919081815260200182805460018160011615610100020316600290048015610d9f5780601f10610d7457610100808354040283529160200191610d9f565b820191906000526020600020905b815481529060010190602001808311610d8257829003601f168201915b5050509183525050600282810180546040805160206001841615610100026000190190931694909404601f81018390048302850183019091528084529381019390830182828015610e315780601f10610e0657610100808354040283529160200191610e31565b820191906000526020600020905b815481529060010190602001808311610e1457829003601f168201915b50505050508152602001600382015481526020016004820154815260200160058201548152602001600682018054600181600116156101000203166002900480601f016020809104026020016040519081016040528092919081815260200182805460018160011615610100020316600290048015610ef15780601f10610ec657610100808354040283529160200191610ef1565b820191906000526020600020905b815481529060010190602001808311610ed457829003601f168201915b505050918352505060078201805460408051602060026001851615610100026000190190941693909304601f8101849004840282018401909252818152938201939291830182828015610f855780601f10610f5a57610100808354040283529160200191610f85565b820191906000526020600020905b815481529060010190602001808311610f6857829003601f168201915b5050509183525050600891909101546001600160a01b0390811660209092019190915261010082015160405192935091908216903480156108fc02916000818181858888f19350505050158015610fe0573d6000803e3d6000fd5b50608082018051340190526000838152600260209081526040909120835181558184015180518593611019926001850192910190611363565b5060408201518051611035916002840191602090910190611363565b50606082015160038201556080820151600482015560a0820151600582015560c0820151805161106f916006840191602090910190611363565b5060e0820151805161108b916007840191602090910190611363565b506101008201518160080160006101000a8154816001600160a01b0302191690836001600160a01b031602179055509050507f40e7ee69b7752556a2822e080331708f155b00055356bb49c73cec9dd96feb488383602001518460400151856060015186608001518760a001518860c001518960e0015189604051808a815260200180602001806020018981526020018881526020018781526020018060200180602001866001600160a01b03166001600160a01b0316815260200185810385528d818151815260200191508051906020019080838360005b8381101561117c578181015183820152602001611164565b50505050905090810190601f1680156111a95780820380516001836020036101000a031916815260200191505b5085810384528c5181528c516020918201918e019080838360005b838110156111dc5781810151838201526020016111c4565b50505050905090810190601f1680156112095780820380516001836020036101000a031916815260200191505b5085810383528851815288516020918201918a019080838360005b8381101561123c578181015183820152602001611224565b50505050905090810190601f1680156112695780820380516001836020036101000a031916815260200191505b50858103825287518152875160209182019189019080838360005b8381101561129c578181015183820152602001611284565b50505050905090810190601f1680156112c95780820380516001836020036101000a031916815260200191505b509d505050505050505050505050505060405180910390a1505050565b805160208183018101805160038252928201938201939093209190925280546001808301805460408051600294831615610100026000190190921693909304601f810187900487028201870190935282815292949091908301828280156107555780601f1061072a57610100808354040283529160200191610755565b828054600181600116156101000203166002900490600052602060002090601f016020900481019282601f106113a457805160ff19168380011785556113d1565b828001600101855582156113d1579182015b828111156113d15782518255916020019190600101906113b6565b506113dd929150611436565b5090565b604051806101200160405280600081526020016060815260200160608152602001600081526020016000815260200160008152602001606081526020016060815260200160006001600160a01b031681525090565b61145091905b808211156113dd576000815560010161143c565b9056fea265627a7a72315820c874cdf245447b5922eb6440d6cae6acb690f0519224c7ee91fdd2701385388e64736f6c63430005100032",
  "source": "pragma solidity ^0.5.16;\n\n// contract UserContract {\n//     struct User {\n//         address walletAddress;\n//         string organisation;\n//         string fName;\n//         string lName;\n//         string email;\n//         uint index;\n//     }\n//     User[] users;\n//     mapping(address => uint256) private addressMap;\n//     mapping(string => uint256) private emailMap; // this must be private if you’re going to use `string` as the key. Otherwise, use bytes32\n//     address[] private userIndex;\n// }\n\ncontract DcentraFunding {\n    string public name = \"DcentraFunding\";\n    uint public projectCount = 0;\n    mapping (uint => Project) public projects;\n    mapping (string => Project) public projectsByCategory; \n\n    struct Project {\n        uint id;\n        string title;\n        string description;\n        uint goal;\n        uint received;\n        uint date;\n        string imageHash;\n        string category;\n        address payable creator;\n    }\n    // Project[] projects;\n    // mapping (uint => Project) private idMap;\n    // mapping (string => Project) private categoryMap;\n    // uint[] private projectIndex;\n\n    event ProjectCreated (\n        uint id,\n        string title,\n        string description,\n        uint goal,\n        uint received,\n        uint date,\n        string imageHash,\n        string category,\n        address payable creator\n    );\n\n    event ProjectFunded(\n        uint id,\n        string title,\n        string description,\n        uint goal,\n        uint received,\n        uint date,\n        string imageHash,\n        string category,\n        address payable creator\n    );\n\n    function createProject (string memory _title, string memory _desc, uint _goal, string memory _imageHash, string memory _category) public {\n        // Todo: Validate category\n\n        // Make sure data sent is complete\n        require(bytes(_title).length > 0);\n        require(bytes(_desc).length > 0);\n        require(bytes(_imageHash).length > 0);\n        require(bytes(_category).length > 0);\n        require(_goal > 0);\n        require(msg.sender != address(0));\n\n        projects[projectCount] = Project(projectCount, _title, _desc, _goal, 0, block.timestamp, _imageHash, _category,msg.sender);\n        emit ProjectCreated(\n            projectCount,\n            _title,\n            _desc,\n            _goal,\n            0,\n            block.timestamp,\n            _imageHash,\n            _category,\n            msg.sender\n        );\n        \n        projectCount++;\n    }\n\n    function updateReceivedFunds (uint _id) public payable {\n        // make sure id is valid\n        require(_id >= 0 && _id < projectCount);\n        // make sure funds are higher than 0\n        require(msg.value > 0);\n        // fetch project\n        Project memory _project = projects[_id];\n        // fetch creator\n        address payable _creator = _project.creator;\n        // pay creator\n        address(_creator).transfer(msg.value);\n        // increment received funds\n        _project.received += msg.value;\n        // update project\n        projects[_id] = _project;\n        // trigger event\n        emit ProjectFunded(\n            _id, \n            _project.title,\n            _project.description,\n            _project.goal,\n            _project.received,\n            _project.date,\n            _project.imageHash,\n            _project.category,\n            _creator\n        );\n    }\n}",
  "sourcePath": "/home/ben/Documents/Code/dcentra-funding/src/contracts/DcentraFunding.sol",
  "compiler": {
    "name": "solc",
    "version": "0.5.16+commit.9c3226ce.Emscripten.clang"
  },
  "schemaVersion": "3.4.3",
  "updatedAt": "2021-11-12T19:10:28.402Z",
  "networkType": "ethereum",
  "devdoc": {
    "methods": {}
  },
  "userdoc": {
    "methods": {}
  }
}